{
  "_format": "hh-sol-artifact-1",
  "contractName": "QuantumPortalLedgerMgr",
  "sourceName": "contracts/quantumPortal/poc/QuantumPortalLedgerMgr.sol",
  "abi": [
    {
      "inputs": [
        {
          "internalType": "uint256",
          "name": "overrideChainId",
          "type": "uint256"
        }
      ],
      "stateMutability": "nonpayable",
      "type": "constructor"
    },
    {
      "inputs": [
        {
          "internalType": "address",
          "name": "owner",
          "type": "address"
        }
      ],
      "name": "OwnableInvalidOwner",
      "type": "error"
    },
    {
      "inputs": [
        {
          "internalType": "address",
          "name": "account",
          "type": "address"
        }
      ],
      "name": "OwnableUnauthorizedAccount",
      "type": "error"
    },
    {
      "anonymous": false,
      "inputs": [
        {
          "indexed": false,
          "internalType": "address",
          "name": "admin",
          "type": "address"
        }
      ],
      "name": "AdminSet",
      "type": "event"
    },
    {
      "anonymous": false,
      "inputs": [
        {
          "indexed": false,
          "internalType": "uint256",
          "name": "remoteChainId",
          "type": "uint256"
        },
        {
          "indexed": false,
          "internalType": "uint256",
          "name": "blockNonce",
          "type": "uint256"
        },
        {
          "indexed": false,
          "internalType": "uint256",
          "name": "timestamp",
          "type": "uint256"
        }
      ],
      "name": "FinalizedBlock",
      "type": "event"
    },
    {
      "anonymous": false,
      "inputs": [
        {
          "indexed": false,
          "internalType": "uint256",
          "name": "remoteChainId",
          "type": "uint256"
        },
        {
          "indexed": false,
          "internalType": "uint256",
          "name": "blockNonce",
          "type": "uint256"
        },
        {
          "indexed": false,
          "internalType": "uint256",
          "name": "timestamp",
          "type": "uint256"
        }
      ],
      "name": "FinalizedInvalidBlock",
      "type": "event"
    },
    {
      "anonymous": false,
      "inputs": [
        {
          "indexed": false,
          "internalType": "uint256",
          "name": "remoteChainId",
          "type": "uint256"
        },
        {
          "indexed": false,
          "internalType": "uint256",
          "name": "startBlockNonce",
          "type": "uint256"
        },
        {
          "indexed": false,
          "internalType": "uint256",
          "name": "endBlockNonce",
          "type": "uint256"
        },
        {
          "indexed": false,
          "internalType": "address[]",
          "name": "finalizers",
          "type": "address[]"
        }
      ],
      "name": "FinalizedSnapshot",
      "type": "event"
    },
    {
      "anonymous": false,
      "inputs": [
        {
          "indexed": false,
          "internalType": "uint64",
          "name": "remoteChainId",
          "type": "uint64"
        },
        {
          "indexed": false,
          "internalType": "uint64",
          "name": "nonce",
          "type": "uint64"
        },
        {
          "indexed": false,
          "internalType": "uint64",
          "name": "timestamp",
          "type": "uint64"
        }
      ],
      "name": "LocalBlockCreated",
      "type": "event"
    },
    {
      "anonymous": false,
      "inputs": [
        {
          "indexed": false,
          "internalType": "bytes32",
          "name": "blockHash",
          "type": "bytes32"
        },
        {
          "indexed": false,
          "internalType": "address",
          "name": "miner",
          "type": "address"
        },
        {
          "indexed": false,
          "internalType": "uint256",
          "name": "stake",
          "type": "uint256"
        },
        {
          "indexed": false,
          "internalType": "uint256",
          "name": "totalValue",
          "type": "uint256"
        },
        {
          "components": [
            {
              "internalType": "uint64",
              "name": "chainId",
              "type": "uint64"
            },
            {
              "internalType": "uint64",
              "name": "nonce",
              "type": "uint64"
            },
            {
              "internalType": "uint64",
              "name": "timestamp",
              "type": "uint64"
            }
          ],
          "indexed": false,
          "internalType": "struct QuantumPortalLib.Block",
          "name": "blockMetadata",
          "type": "tuple"
        }
      ],
      "name": "MinedBlockCreated",
      "type": "event"
    },
    {
      "anonymous": false,
      "inputs": [
        {
          "indexed": true,
          "internalType": "address",
          "name": "previousOwner",
          "type": "address"
        },
        {
          "indexed": true,
          "internalType": "address",
          "name": "newOwner",
          "type": "address"
        }
      ],
      "name": "OwnershipTransferred",
      "type": "event"
    },
    {
      "anonymous": false,
      "inputs": [
        {
          "indexed": false,
          "internalType": "uint64",
          "name": "timestamp",
          "type": "uint64"
        },
        {
          "indexed": false,
          "internalType": "address",
          "name": "remoteContract",
          "type": "address"
        },
        {
          "indexed": false,
          "internalType": "address",
          "name": "sourceMsgSender",
          "type": "address"
        },
        {
          "indexed": false,
          "internalType": "address",
          "name": "sourceBeneficiary",
          "type": "address"
        },
        {
          "indexed": false,
          "internalType": "address",
          "name": "token",
          "type": "address"
        },
        {
          "indexed": false,
          "internalType": "uint256",
          "name": "amount",
          "type": "uint256"
        },
        {
          "indexed": false,
          "internalType": "bytes",
          "name": "method",
          "type": "bytes"
        },
        {
          "indexed": false,
          "internalType": "uint256",
          "name": "gas",
          "type": "uint256"
        },
        {
          "indexed": false,
          "internalType": "uint256",
          "name": "fixedFee",
          "type": "uint256"
        }
      ],
      "name": "RemoteTransactionRegistered",
      "type": "event"
    },
    {
      "inputs": [],
      "name": "VERSION",
      "outputs": [
        {
          "internalType": "string",
          "name": "",
          "type": "string"
        }
      ],
      "stateMutability": "view",
      "type": "function"
    },
    {
      "inputs": [],
      "name": "admin",
      "outputs": [
        {
          "internalType": "address",
          "name": "",
          "type": "address"
        }
      ],
      "stateMutability": "view",
      "type": "function"
    },
    {
      "inputs": [],
      "name": "authorityMgr",
      "outputs": [
        {
          "internalType": "address",
          "name": "",
          "type": "address"
        }
      ],
      "stateMutability": "view",
      "type": "function"
    },
    {
      "inputs": [
        {
          "internalType": "uint64",
          "name": "remoteChainId",
          "type": "uint64"
        },
        {
          "internalType": "uint64",
          "name": "blockNonce",
          "type": "uint64"
        },
        {
          "components": [
            {
              "internalType": "uint64",
              "name": "timestamp",
              "type": "uint64"
            },
            {
              "internalType": "address",
              "name": "remoteContract",
              "type": "address"
            },
            {
              "internalType": "address",
              "name": "sourceMsgSender",
              "type": "address"
            },
            {
              "internalType": "address",
              "name": "sourceBeneficiary",
              "type": "address"
            },
            {
              "internalType": "address",
              "name": "token",
              "type": "address"
            },
            {
              "internalType": "uint256",
              "name": "amount",
              "type": "uint256"
            },
            {
              "internalType": "bytes[]",
              "name": "methods",
              "type": "bytes[]"
            },
            {
              "internalType": "uint256",
              "name": "gas",
              "type": "uint256"
            },
            {
              "internalType": "uint256",
              "name": "fixedFee",
              "type": "uint256"
            }
          ],
          "internalType": "struct QuantumPortalLib.RemoteTransaction[]",
          "name": "transactions",
          "type": "tuple[]"
        }
      ],
      "name": "calculateBlockHash",
      "outputs": [
        {
          "internalType": "bytes32",
          "name": "",
          "type": "bytes32"
        }
      ],
      "stateMutability": "pure",
      "type": "function"
    },
    {
      "inputs": [
        {
          "internalType": "uint256",
          "name": "targetChainId",
          "type": "uint256"
        },
        {
          "internalType": "uint256",
          "name": "varSize",
          "type": "uint256"
        }
      ],
      "name": "calculateFixedFee",
      "outputs": [
        {
          "internalType": "uint256",
          "name": "",
          "type": "uint256"
        }
      ],
      "stateMutability": "view",
      "type": "function"
    },
    {
      "inputs": [],
      "name": "feeConvertor",
      "outputs": [
        {
          "internalType": "address",
          "name": "",
          "type": "address"
        }
      ],
      "stateMutability": "view",
      "type": "function"
    },
    {
      "inputs": [
        {
          "internalType": "uint256",
          "name": "remoteChainId",
          "type": "uint256"
        },
        {
          "internalType": "uint256",
          "name": "blockNonce",
          "type": "uint256"
        },
        {
          "internalType": "uint256[]",
          "name": "invalidBlockNonces",
          "type": "uint256[]"
        },
        {
          "internalType": "bytes32",
          "name": "finalizersHash",
          "type": "bytes32"
        },
        {
          "internalType": "address[]",
          "name": "finalizers",
          "type": "address[]"
        },
        {
          "internalType": "bytes32",
          "name": "salt",
          "type": "bytes32"
        },
        {
          "internalType": "uint64",
          "name": "expiry",
          "type": "uint64"
        },
        {
          "internalType": "bytes",
          "name": "multiSignature",
          "type": "bytes"
        }
      ],
      "name": "finalize",
      "outputs": [],
      "stateMutability": "nonpayable",
      "type": "function"
    },
    {
      "inputs": [],
      "name": "fixedFeeTarget",
      "outputs": [
        {
          "internalType": "address",
          "name": "",
          "type": "address"
        }
      ],
      "stateMutability": "view",
      "type": "function"
    },
    {
      "inputs": [
        {
          "internalType": "uint64",
          "name": "chainId",
          "type": "uint64"
        },
        {
          "internalType": "uint64",
          "name": "nonce",
          "type": "uint64"
        }
      ],
      "name": "getBlockIdx",
      "outputs": [
        {
          "internalType": "uint256",
          "name": "",
          "type": "uint256"
        }
      ],
      "stateMutability": "pure",
      "type": "function"
    },
    {
      "inputs": [
        {
          "internalType": "uint64",
          "name": "chainId",
          "type": "uint64"
        }
      ],
      "name": "isLocalBlockReady",
      "outputs": [
        {
          "internalType": "bool",
          "name": "",
          "type": "bool"
        }
      ],
      "stateMutability": "view",
      "type": "function"
    },
    {
      "inputs": [
        {
          "internalType": "uint64",
          "name": "chainId",
          "type": "uint64"
        }
      ],
      "name": "lastRemoteMinedBlock",
      "outputs": [
        {
          "components": [
            {
              "internalType": "uint64",
              "name": "chainId",
              "type": "uint64"
            },
            {
              "internalType": "uint64",
              "name": "nonce",
              "type": "uint64"
            },
            {
              "internalType": "uint64",
              "name": "timestamp",
              "type": "uint64"
            }
          ],
          "internalType": "struct QuantumPortalLib.Block",
          "name": "_block",
          "type": "tuple"
        }
      ],
      "stateMutability": "view",
      "type": "function"
    },
    {
      "inputs": [],
      "name": "ledger",
      "outputs": [
        {
          "internalType": "address",
          "name": "",
          "type": "address"
        }
      ],
      "stateMutability": "view",
      "type": "function"
    },
    {
      "inputs": [
        {
          "internalType": "uint64",
          "name": "chainId",
          "type": "uint64"
        },
        {
          "internalType": "uint64",
          "name": "blockNonce",
          "type": "uint64"
        }
      ],
      "name": "localBlockByNonce",
      "outputs": [
        {
          "components": [
            {
              "components": [
                {
                  "internalType": "uint64",
                  "name": "chainId",
                  "type": "uint64"
                },
                {
                  "internalType": "uint64",
                  "name": "nonce",
                  "type": "uint64"
                },
                {
                  "internalType": "uint64",
                  "name": "timestamp",
                  "type": "uint64"
                }
              ],
              "internalType": "struct QuantumPortalLib.Block",
              "name": "metadata",
              "type": "tuple"
            }
          ],
          "internalType": "struct IQuantumPortalLedgerMgr.LocalBlock",
          "name": "",
          "type": "tuple"
        },
        {
          "components": [
            {
              "internalType": "uint64",
              "name": "timestamp",
              "type": "uint64"
            },
            {
              "internalType": "address",
              "name": "remoteContract",
              "type": "address"
            },
            {
              "internalType": "address",
              "name": "sourceMsgSender",
              "type": "address"
            },
            {
              "internalType": "address",
              "name": "sourceBeneficiary",
              "type": "address"
            },
            {
              "internalType": "address",
              "name": "token",
              "type": "address"
            },
            {
              "internalType": "uint256",
              "name": "amount",
              "type": "uint256"
            },
            {
              "internalType": "bytes[]",
              "name": "methods",
              "type": "bytes[]"
            },
            {
              "internalType": "uint256",
              "name": "gas",
              "type": "uint256"
            },
            {
              "internalType": "uint256",
              "name": "fixedFee",
              "type": "uint256"
            }
          ],
          "internalType": "struct QuantumPortalLib.RemoteTransaction[]",
          "name": "",
          "type": "tuple[]"
        }
      ],
      "stateMutability": "view",
      "type": "function"
    },
    {
      "inputs": [
        {
          "internalType": "uint64",
          "name": "remoteChainId",
          "type": "uint64"
        },
        {
          "internalType": "uint64",
          "name": "blockNonce",
          "type": "uint64"
        },
        {
          "components": [
            {
              "internalType": "uint64",
              "name": "timestamp",
              "type": "uint64"
            },
            {
              "internalType": "address",
              "name": "remoteContract",
              "type": "address"
            },
            {
              "internalType": "address",
              "name": "sourceMsgSender",
              "type": "address"
            },
            {
              "internalType": "address",
              "name": "sourceBeneficiary",
              "type": "address"
            },
            {
              "internalType": "address",
              "name": "token",
              "type": "address"
            },
            {
              "internalType": "uint256",
              "name": "amount",
              "type": "uint256"
            },
            {
              "internalType": "bytes[]",
              "name": "methods",
              "type": "bytes[]"
            },
            {
              "internalType": "uint256",
              "name": "gas",
              "type": "uint256"
            },
            {
              "internalType": "uint256",
              "name": "fixedFee",
              "type": "uint256"
            }
          ],
          "internalType": "struct QuantumPortalLib.RemoteTransaction[]",
          "name": "transactions",
          "type": "tuple[]"
        },
        {
          "internalType": "bytes32",
          "name": "salt",
          "type": "bytes32"
        },
        {
          "internalType": "uint64",
          "name": "expiry",
          "type": "uint64"
        },
        {
          "internalType": "bytes",
          "name": "multiSignature",
          "type": "bytes"
        }
      ],
      "name": "mineRemoteBlock",
      "outputs": [],
      "stateMutability": "nonpayable",
      "type": "function"
    },
    {
      "inputs": [
        {
          "internalType": "uint64",
          "name": "chainId",
          "type": "uint64"
        },
        {
          "internalType": "uint64",
          "name": "blockNonce",
          "type": "uint64"
        }
      ],
      "name": "minedBlockByNonce",
      "outputs": [
        {
          "components": [
            {
              "internalType": "bytes32",
              "name": "blockHash",
              "type": "bytes32"
            },
            {
              "internalType": "address",
              "name": "miner",
              "type": "address"
            },
            {
              "internalType": "uint8",
              "name": "invalidBlock",
              "type": "uint8"
            },
            {
              "internalType": "uint256",
              "name": "stake",
              "type": "uint256"
            },
            {
              "internalType": "uint256",
              "name": "totalValue",
              "type": "uint256"
            },
            {
              "components": [
                {
                  "internalType": "uint64",
                  "name": "chainId",
                  "type": "uint64"
                },
                {
                  "internalType": "uint64",
                  "name": "nonce",
                  "type": "uint64"
                },
                {
                  "internalType": "uint64",
                  "name": "timestamp",
                  "type": "uint64"
                }
              ],
              "internalType": "struct QuantumPortalLib.Block",
              "name": "blockMetadata",
              "type": "tuple"
            }
          ],
          "internalType": "struct IQuantumPortalLedgerMgr.MinedBlock",
          "name": "b",
          "type": "tuple"
        },
        {
          "components": [
            {
              "internalType": "uint64",
              "name": "timestamp",
              "type": "uint64"
            },
            {
              "internalType": "address",
              "name": "remoteContract",
              "type": "address"
            },
            {
              "internalType": "address",
              "name": "sourceMsgSender",
              "type": "address"
            },
            {
              "internalType": "address",
              "name": "sourceBeneficiary",
              "type": "address"
            },
            {
              "internalType": "address",
              "name": "token",
              "type": "address"
            },
            {
              "internalType": "uint256",
              "name": "amount",
              "type": "uint256"
            },
            {
              "internalType": "bytes[]",
              "name": "methods",
              "type": "bytes[]"
            },
            {
              "internalType": "uint256",
              "name": "gas",
              "type": "uint256"
            },
            {
              "internalType": "uint256",
              "name": "fixedFee",
              "type": "uint256"
            }
          ],
          "internalType": "struct QuantumPortalLib.RemoteTransaction[]",
          "name": "txs",
          "type": "tuple[]"
        }
      ],
      "stateMutability": "view",
      "type": "function"
    },
    {
      "inputs": [],
      "name": "minerMgr",
      "outputs": [
        {
          "internalType": "address",
          "name": "",
          "type": "address"
        }
      ],
      "stateMutability": "view",
      "type": "function"
    },
    {
      "inputs": [],
      "name": "minerMinimumStake",
      "outputs": [
        {
          "internalType": "uint256",
          "name": "",
          "type": "uint256"
        }
      ],
      "stateMutability": "view",
      "type": "function"
    },
    {
      "inputs": [],
      "name": "owner",
      "outputs": [
        {
          "internalType": "address",
          "name": "",
          "type": "address"
        }
      ],
      "stateMutability": "view",
      "type": "function"
    },
    {
      "inputs": [],
      "name": "registerMiner",
      "outputs": [],
      "stateMutability": "nonpayable",
      "type": "function"
    },
    {
      "inputs": [
        {
          "internalType": "uint64",
          "name": "remoteChainId",
          "type": "uint64"
        },
        {
          "internalType": "address",
          "name": "remoteContract",
          "type": "address"
        },
        {
          "internalType": "address",
          "name": "msgSender",
          "type": "address"
        },
        {
          "internalType": "address",
          "name": "beneficiary",
          "type": "address"
        },
        {
          "internalType": "address",
          "name": "token",
          "type": "address"
        },
        {
          "internalType": "uint256",
          "name": "amount",
          "type": "uint256"
        },
        {
          "internalType": "bytes",
          "name": "method",
          "type": "bytes"
        }
      ],
      "name": "registerTransaction",
      "outputs": [],
      "stateMutability": "nonpayable",
      "type": "function"
    },
    {
      "inputs": [],
      "name": "renounceOwnership",
      "outputs": [],
      "stateMutability": "nonpayable",
      "type": "function"
    },
    {
      "inputs": [
        {
          "internalType": "address",
          "name": "_admin",
          "type": "address"
        }
      ],
      "name": "setAdmin",
      "outputs": [],
      "stateMutability": "nonpayable",
      "type": "function"
    },
    {
      "inputs": [],
      "name": "stakes",
      "outputs": [
        {
          "internalType": "address",
          "name": "",
          "type": "address"
        }
      ],
      "stateMutability": "view",
      "type": "function"
    },
    {
      "inputs": [],
      "name": "state",
      "outputs": [
        {
          "internalType": "contract QuantumPortalState",
          "name": "",
          "type": "address"
        }
      ],
      "stateMutability": "view",
      "type": "function"
    },
    {
      "inputs": [
        {
          "internalType": "uint64",
          "name": "minedOnChainId",
          "type": "uint64"
        },
        {
          "internalType": "uint64",
          "name": "localBlockNonce",
          "type": "uint64"
        },
        {
          "internalType": "uint64",
          "name": "localBlockTimestamp",
          "type": "uint64"
        },
        {
          "components": [
            {
              "internalType": "uint64",
              "name": "timestamp",
              "type": "uint64"
            },
            {
              "internalType": "address",
              "name": "remoteContract",
              "type": "address"
            },
            {
              "internalType": "address",
              "name": "sourceMsgSender",
              "type": "address"
            },
            {
              "internalType": "address",
              "name": "sourceBeneficiary",
              "type": "address"
            },
            {
              "internalType": "address",
              "name": "token",
              "type": "address"
            },
            {
              "internalType": "uint256",
              "name": "amount",
              "type": "uint256"
            },
            {
              "internalType": "bytes[]",
              "name": "methods",
              "type": "bytes[]"
            },
            {
              "internalType": "uint256",
              "name": "gas",
              "type": "uint256"
            },
            {
              "internalType": "uint256",
              "name": "fixedFee",
              "type": "uint256"
            }
          ],
          "internalType": "struct QuantumPortalLib.RemoteTransaction[]",
          "name": "transactions",
          "type": "tuple[]"
        },
        {
          "internalType": "bytes32",
          "name": "salt",
          "type": "bytes32"
        },
        {
          "internalType": "uint64",
          "name": "expiry",
          "type": "uint64"
        },
        {
          "internalType": "bytes",
          "name": "multiSignature",
          "type": "bytes"
        },
        {
          "internalType": "address",
          "name": "rewardReceiver",
          "type": "address"
        }
      ],
      "name": "submitFraudProof",
      "outputs": [],
      "stateMutability": "nonpayable",
      "type": "function"
    },
    {
      "inputs": [
        {
          "internalType": "address",
          "name": "newOwner",
          "type": "address"
        }
      ],
      "name": "transferOwnership",
      "outputs": [],
      "stateMutability": "nonpayable",
      "type": "function"
    },
    {
      "inputs": [
        {
          "internalType": "address",
          "name": "_authorityMgr",
          "type": "address"
        }
      ],
      "name": "updateAuthorityMgr",
      "outputs": [],
      "stateMutability": "nonpayable",
      "type": "function"
    },
    {
      "inputs": [
        {
          "internalType": "address",
          "name": "_feeConvertor",
          "type": "address"
        }
      ],
      "name": "updateFeeConvertor",
      "outputs": [],
      "stateMutability": "nonpayable",
      "type": "function"
    },
    {
      "inputs": [
        {
          "internalType": "address",
          "name": "_varFeeTarget",
          "type": "address"
        },
        {
          "internalType": "address",
          "name": "_fixedFeeTarget",
          "type": "address"
        }
      ],
      "name": "updateFeeTargets",
      "outputs": [],
      "stateMutability": "nonpayable",
      "type": "function"
    },
    {
      "inputs": [
        {
          "internalType": "address",
          "name": "_ledger",
          "type": "address"
        }
      ],
      "name": "updateLedger",
      "outputs": [],
      "stateMutability": "nonpayable",
      "type": "function"
    },
    {
      "inputs": [
        {
          "internalType": "address",
          "name": "_minerMgr",
          "type": "address"
        }
      ],
      "name": "updateMinerMgr",
      "outputs": [],
      "stateMutability": "nonpayable",
      "type": "function"
    },
    {
      "inputs": [
        {
          "internalType": "uint256",
          "name": "amount",
          "type": "uint256"
        }
      ],
      "name": "updateMinerMinimumStake",
      "outputs": [],
      "stateMutability": "nonpayable",
      "type": "function"
    },
    {
      "inputs": [
        {
          "internalType": "address",
          "name": "_state",
          "type": "address"
        }
      ],
      "name": "updateState",
      "outputs": [],
      "stateMutability": "nonpayable",
      "type": "function"
    },
    {
      "inputs": [],
      "name": "varFeeTarget",
      "outputs": [
        {
          "internalType": "address",
          "name": "",
          "type": "address"
        }
      ],
      "stateMutability": "view",
      "type": "function"
    }
  ],
  "bytecode": "0x60a060405269d3c21bcecceda10000006002553480156200001f57600080fd5b506040516200503d3803806200503d8339810160408190526200004291620000df565b33806200006957604051631e4fbdf760e01b81526000600482015260240160405180910390fd5b62000074816200008f565b50801562000083578062000085565b465b60805250620000f9565b600080546001600160a01b038381166001600160a01b0319831681178455604051919092169283917f8be0079c531659141344cd1fd0a4f28419497f9722a3daafe3b4186f6b6457e09190a35050565b600060208284031215620000f257600080fd5b5051919050565b608051614f216200011c6000396000818161157e01526116ec0152614f216000f3fe608060405234801561001057600080fd5b50600436106102065760003560e01c8063a0cad7951161011a578063c19d93fb116100ad578063df2eaf511161007c578063df2eaf5114610477578063f08af1831461047f578063f2fde38b146104a0578063f851a440146104b3578063ffa1ad74146104c657600080fd5b8063c19d93fb1461042b578063caf265bd1461043e578063d505ec4114610451578063d85efde51461046457600080fd5b8063b679821e116100e9578063b679821e146103cf578063b6cec070146103e2578063b8863a1814610405578063b8e8b69c1461041857600080fd5b8063a0cad79514610383578063a80ab07e14610396578063ad09c7ce146103a9578063b03fa8ae146103bc57600080fd5b806353afb02e1161019d578063715018a61161016c578063715018a61461033157806374e8de77146103395780638da5cb5b1461034c5780639bd3d7641461035d578063a073cf0a1461037057600080fd5b806353afb02e146102e557806356397c35146102f857806365bacc051461030b578063704b6c021461031e57600080fd5b80633304f456116101d95780633304f4561461029557806337ec9e28146102ac57806346a32850146102bf57806347f06f2a146102d257600080fd5b8063082a259e1461020b5780631890d7cb146102205780631c66e152146102495780631dc2572e14610274575b600080fd5b61021e610219366004613a90565b6104f9565b005b61023361022e366004613acd565b610563565b6040516102409190613b11565b60405180910390f35b60085461025c906001600160a01b031681565b6040516001600160a01b039091168152602001610240565b610287610282366004613b1f565b6105fb565b604051610240929190613d58565b61029e60025481565b604051908152602001610240565b61021e6102ba366004613f64565b6106fc565b61029e6102cd366004614023565b610831565b61029e6102e03660046141fd565b610844565b61021e6102f336600461425e565b610859565b60045461025c906001600160a01b031681565b61021e610319366004613a90565b61117e565b61021e61032c366004613a90565b6111df565b61021e61123b565b61021e610347366004613a90565b61124f565b6000546001600160a01b031661025c565b61021e61036b366004614303565b6112b0565b61021e61037e366004613a90565b6112f4565b61029e610391366004613b1f565b611355565b61021e6103a436600461431c565b611361565b600a5461025c906001600160a01b031681565b61021e6103ca3660046143bf565b611423565b60055461025c906001600160a01b031681565b6103f56103f0366004613acd565b611490565b6040519015158152602001610240565b60075461025c906001600160a01b031681565b60065461025c906001600160a01b031681565b60035461025c906001600160a01b031681565b61021e61044c366004613a90565b611511565b61021e61045f3660046143ed565b611572565b60095461025c906001600160a01b031681565b61021e611838565b61049261048d366004613b1f565b61194e565b6040516102409291906144bb565b61021e6104ae366004613a90565b611a68565b60015461025c906001600160a01b031681565b6104ec604051806040016040528060078152602001663030302e30303160c81b81525081565b60405161024091906144dc565b6001546001600160a01b031633148061051c57506000546001600160a01b031633145b6105415760405162461bcd60e51b8152600401610538906144ef565b60405180910390fd5b600480546001600160a01b0319166001600160a01b0392909216919091179055565b604080516060810182526000808252602082018190529181019190915260035460405163dd3e3bdb60e01b81526001600160401b03841660048201526001600160a01b039091169063dd3e3bdb90602401606060405180830381865afa1580156105d1573d6000803e3d6000fd5b505050506040513d601f19601f820116820180604052508101906105f59190614598565b92915050565b610603613a22565b606060006106118585611aa6565b600354604051630e2cd96560e31b8152600481018390529192506001600160a01b031690637166cb289060240161010060405180830381865afa15801561065c573d6000803e3d6000fd5b505050506040513d601f19601f8201168201806040525081019061068091906145bf565b600354604051635ba1230f60e11b8152600481018490529194506001600160a01b03169063b742461e90602401600060405180830381865afa1580156106ca573d6000803e3d6000fd5b505050506040513d6000823e601f3d908101601f191682016040526106f291908101906147d7565b9150509250929050565b60007f05831baa2bd5dd91f578326af6687292f9e93508106e8c1d2fd8557d9daf138289898888888860405160200161073b97969594939291906148cc565b60405160208183030381529060405280519060200120905061077c6040518060400160405280600881526020016709aa68ebe9082a6960c31b815250611ad1565b6107a57f05831baa2bd5dd91f578326af6687292f9e93508106e8c1d2fd8557d9daf1382611b14565b6107ae81611b14565b600654604051631146405d60e31b81526001600160a01b0390911690638a3202e8906107e7906001908590899089908990600401614930565b600060405180830381600087803b15801561080157600080fd5b505af1158015610815573d6000803e3d6000fd5b505050506108268989898989611b59565b505050505050505050565b600061083d83836121ba565b9392505050565b6000610851848484612240565b949350505050565b856001600160401b03166000036108b25760405162461bcd60e51b815260206004820152601c60248201527f51504c4d3a2072656d6f7465436861696e4964207265717569726564000000006044820152606401610538565b60035460405163dd3e3bdb60e01b81526001600160401b03881660048201526000916001600160a01b03169063dd3e3bdb90602401606060405180830381865afa158015610904573d6000803e3d6000fd5b505050506040513d601f19601f820116820180604052508101906109289190614598565b602001516001600160401b031690506109428160016149a3565b866001600160401b0316146109a45760405162461bcd60e51b815260206004820152602260248201527f51504c4d3a2063616e6e6f74206a756d70206f722072657472616365206e6f6e604482015261636560f01b6064820152608401610538565b506064845111156109ec5760405162461bcd60e51b815260206004820152601260248201527151504c4d3a20746f6f206d616e792074787360701b6044820152606401610538565b6109f4613a22565b6000610a01888888612240565b9050610a3d6040518060400160405280600f81526020016e14915353d51157d0d210525397d251608a1b815250896001600160401b0316612276565b610a736040518060400160405280600b81526020016a424c4f434b5f4e4f4e434560a81b815250886001600160401b0316612276565b610a9c6040518060400160405280600881526020016709aa68e409082a6960c31b815250611ad1565b610aa581611b14565b60008060005b8851811015610b6157610ad6898281518110610ac957610ac96149b6565b60200260200101516122bf565b610ae090846149a3565b925060005b898281518110610af757610af76149b6565b602002602001015160c0015151811015610b5857898281518110610b1d57610b1d6149b6565b602002602001015160c001518181518110610b3a57610b3a6149b6565b60200260200101515183610b4e91906149a3565b9250600101610ae5565b50600101610aab565b50620493e0811115610bad5760405162461bcd60e51b815260206004820152601560248201527451504c4d3a20626c6f636b20746f6f206c6172676560581b6044820152606401610538565b600554600254604051632697687d60e01b815260009283926001600160a01b0390911691632697687d91610bee9189918e918e918e918c91906004016149cc565b6040805180830381865afa158015610c0a573d6000803e3d6000fd5b505050506040513d601f19601f82011682018060405250810190610c2e9190614a0f565b9150915060008a60018c51610c439190614a42565b81518110610c5357610c536149b6565b602090810291909101015151600554604051631f07bf0b60e01b81526001600160a01b038581166004830152602482018a90526001600160401b03909316604482018190529350911690631f07bf0b906064016020604051808303816000875af1158015610cc5573d6000803e3d6000fd5b505050506040513d601f19601f82011682018060405250810190610ce99190614a55565b610d355760405162461bcd60e51b815260206004820152601960248201527f51504c4d3a206d696e696e67206f7574206f66206f72646572000000000000006044820152606401610538565b50610d60604051806040016040528060088152602001674d494e455220495360c01b815250826122de565b6000610d6b82612323565b9050600254811015610db85760405162461bcd60e51b815260206004820152601660248201527551504c4d3a206e6f7420656e6f756768207374616b6560501b6044820152606401610538565b506001826002811115610dcd57610dcd61491a565b14610e8c576002826002811115610de657610de661491a565b03610e335760405162461bcd60e51b815260206004820181905260248201527f51504c4d3a206d696e657220686173206e6f7420656e6f756768207374616b656044820152606401610538565b60405162461bcd60e51b815260206004820152602860248201527f51504c4d3a206d696e6572207369676e61747572652063616e6e6f74206265206044820152671d995c9a599a595960c21b6064820152608401610538565b6005548a516001600160a01b0390911690636988ada5908e9084908790610eb590610120614a77565b610ebf91906149a3565b6040516001600160e01b031960e086901b1681526001600160401b0393841660048201526001600160a01b0390921660248301526044820152908e166064820152608401600060405180830381600087803b158015610f1d57600080fd5b505af1158015610f31573d6000803e3d6000fd5b50505050600060405180606001604052808e6001600160401b031681526020018d6001600160401b03168152602001426001600160401b03168152509050600360009054906101000a90046001600160a01b03166001600160a01b0316630757c9468e836040518363ffffffff1660e01b8152600401610fb2929190614a8e565b600060405180830381600087803b158015610fcc57600080fd5b505af1158015610fe0573d6000803e3d6000fd5b505050506000610fef83612323565b90506040518060c00160405280888152602001336001600160a01b03168152602001600060ff1681526020018281526020018781526020018381525097507f1156cd6bcfda5f396fc9a1c07caf73f292ab2e0337a8d9fd0c1787636c5bd3708733838986604051611064959493929190614aab565b60405180910390a150505050505050600061107f8888611aa6565b60035460405163c28fcc2160e01b81529192506001600160a01b03169063c28fcc21906110b29084908690600401614ae6565b600060405180830381600087803b1580156110cc57600080fd5b505af11580156110e0573d6000803e3d6000fd5b5050505060005b86518110156108265760035487516001600160a01b039091169063443b52a69084908a908590811061111b5761111b6149b6565b60200260200101516040518363ffffffff1660e01b8152600401611140929190614afb565b600060405180830381600087803b15801561115a57600080fd5b505af115801561116e573d6000803e3d6000fd5b5050600190920191506110e79050565b6001546001600160a01b03163314806111a157506000546001600160a01b031633145b6111bd5760405162461bcd60e51b8152600401610538906144ef565b600580546001600160a01b0319166001600160a01b0392909216919091179055565b6111e761241a565b600180546001600160a01b0319166001600160a01b0383169081179091556040519081527f8fe72c3e0020beb3234e76ae6676fa576fbfcae600af1c4fea44784cf0db329c9060200160405180910390a150565b61124361241a565b61124d6000612447565b565b6001546001600160a01b031633148061127257506000546001600160a01b031633145b61128e5760405162461bcd60e51b8152600401610538906144ef565b600380546001600160a01b0319166001600160a01b0392909216919091179055565b6001546001600160a01b03163314806112d357506000546001600160a01b031633145b6112ef5760405162461bcd60e51b8152600401610538906144ef565b600255565b6001546001600160a01b031633148061131757506000546001600160a01b031633145b6113335760405162461bcd60e51b8152600401610538906144ef565b600680546001600160a01b0319166001600160a01b0392909216919091179055565b600061083d8383611aa6565b6004546001600160a01b031633146113af5760405162461bcd60e51b8152602060048201526011602482015270145413134e88139bdd08185b1b1bddd959607a1b6044820152606401610538565b620f4a0c196001600160a01b0387160161140b5760405162461bcd60e51b815260206004820152601c60248201527f51504c4d3a20496e76616c69642072656d6f7465436f6e7472616374000000006044820152606401610538565b61141a87878787878787612497565b50505050505050565b6001546001600160a01b031633148061144657506000546001600160a01b031633145b6114625760405162461bcd60e51b8152600401610538906144ef565b600880546001600160a01b039384166001600160a01b03199182161790915560098054929093169116179055565b6003546040516316f5e9d360e21b81526001600160401b03831660048201526000916105f5916001600160a01b0390911690635bd7a74c90602401606060405180830381865afa1580156114e8573d6000803e3d6000fd5b505050506040513d601f19601f8201168201806040525081019061150c9190614598565b6129ef565b6001546001600160a01b031633148061153457506000546001600160a01b031633145b6115505760405162461bcd60e51b8152600401610538906144ef565b600780546001600160a01b0319166001600160a01b0392909216919091179055565b600060606000806115a37f00000000000000000000000000000000000000000000000000000000000000008c611aa6565b600354604051631f3eb44360e01b8152600481018390529192506000916001600160a01b0390911690631f3eb44390602401606060405180830381865afa1580156115f2573d6000803e3d6000fd5b505050506040513d601f19601f820116820180604052508101906116169190614b14565b5180519091506001600160401b038e8116911614158061164c57508b6001600160401b031681602001516001600160401b031614155b8061166d57508a6001600160401b031681604001516001600160401b031614155b806116e55750600354604051639601973160e01b8152600481018490526001600160a01b0390911690639601973190602401602060405180830381865afa1580156116bc573d6000803e3d6000fd5b505050506040513d601f19601f820116820180604052508101906116e09190614b5e565b8a5114155b94506117127f00000000000000000000000000000000000000000000000000000000000000008d8c612240565b60405190935061172e9084908e908c908c908c90602001614b77565b6040516020818303038152906040529350846118105760005b8a5181101561180e5760035460405163947139ff60e01b815260048101859052602481018390526000916001600160a01b03169063947139ff90604401600060405180830381865afa1580156117a1573d6000803e3d6000fd5b505050506040513d6000823e601f3d908101601f191682016040526117c99190810190614baf565b905086806117f757506117f5818d84815181106117e8576117e86149b6565b6020026020010151612a14565b155b96508615611805575061180e565b50600101611747565b505b5050821561182b5761182b8b620f4a0d308760008088612497565b5050505050505050505050565b61186a604051806040016040528060118152602001702922a3a4a9aa22a924a7239026a4a722a960791b815250611ad1565b600061187533612323565b90506118a36040518060400160405280600781526020016629aa20a5a2a7a360c91b81525082600254612ab3565b6002548110156118ee5760405162461bcd60e51b815260206004820152601660248201527551504c4d3a206e6f7420656e6f756768207374616b6560501b6044820152606401610538565b60055460405163341ccfcb60e01b81523360048201526001600160a01b039091169063341ccfcb90602401600060405180830381600087803b15801561193357600080fd5b505af1158015611947573d6000803e3d6000fd5b5050505050565b6040805160808101825260006020820181815292820181905260608201529081526060600061197d8585611aa6565b600354604051631f3eb44360e01b8152600481018390529192506001600160a01b031690631f3eb44390602401606060405180830381865afa1580156119c7573d6000803e3d6000fd5b505050506040513d601f19601f820116820180604052508101906119eb9190614b14565b60035460405163292c1f7360e11b8152600481018490526001600160a01b03909116906352583ee690602401600060405180830381865afa158015611a34573d6000803e3d6000fd5b505050506040513d6000823e601f3d908101601f19168201604052611a5c91908101906147d7565b92509250509250929050565b611a7061241a565b6001600160a01b038116611a9a57604051631e4fbdf760e01b815260006004820152602401610538565b611aa381612447565b50565b600061083d6001600160401b0383166fffffffffffffffff0000000000000000604086901b166149a3565b611aa381604051602401611ae591906144dc565b60408051601f198184030181529190526020810180516001600160e01b031663104c13eb60e21b179052612aff565b611aa381604051602401611b2a91815260200190565b60408051601f198184030181529190526020810180516001600160e01b03166327b7cf8560e01b179052612aff565b60035460405163dd3e3bdb60e01b8152600481018790526000916001600160a01b03169063dd3e3bdb90602401606060405180830381865afa158015611ba3573d6000803e3d6000fd5b505050506040513d601f19601f82011682018060405250810190611bc79190614598565b80519091506001600160401b0316600003611c245760405162461bcd60e51b815260206004820152601760248201527f51504c4d3a204e6f20626c6f636b206973206d696e65640000000000000000006044820152606401610538565b80602001516001600160401b0316851115611c795760405162461bcd60e51b8152602060048201526015602482015274145413134e881b9bdb98d9481b9bdd081b5a5b9959605a1b6044820152606401610538565b50600354604051636b1b42bf60e11b8152600481018790526000916001600160a01b03169063d636857e90602401606060405180830381865afa158015611cc4573d6000803e3d6000fd5b505050506040513d601f19601f82011682018060405250810190611ce89190614598565b80519091506001600160401b03161580611d0e575080602001516001600160401b031685115b611d5a5760405162461bcd60e51b815260206004820152601760248201527f51504c4d3a20616c72656164792066696e616c697a65640000000000000000006044820152606401610538565b80516000906001600160401b031615611d82576020820151611d7d906001614be3565b611d85565b60005b6001600160401b031690506000611d9c8288614a42565b9050600a811115611de75760405162461bcd60e51b815260206004820152601560248201527451504c4d3a20746f6f206d616e7920626c6f636b7360581b6044820152606401610538565b8086511115611e385760405162461bcd60e51b815260206004820152601e60248201527f51504c4d3a20696e76616c6964206e6f6e63657320746f6f206c6172676500006044820152606401610538565b600186511115611ee35760015b8651811015611ee15786611e5a600183614a42565b81518110611e6a57611e6a6149b6565b6020026020010151878281518110611e8457611e846149b6565b602002602001015111611ed95760405162461bcd60e51b815260206004820152601f60248201527f51504c4d3a20696e76616c69644e6f6e636573206e6f74206f726465726564006044820152606401610538565b600101611e45565b505b6000611eef8989611aa6565b9050600080611f028b868c8c8c88612b08565b600554604051636988ada560e01b8152600481018f905233602482015260448101849052606481018e90529294509092506001600160a01b031690636988ada590608401600060405180830381600087803b158015611f6057600080fd5b505af1158015611f74573d6000803e3d6000fd5b5050600654604051636988ada560e01b8152600481018f905233602482015260448101859052606481018e90526001600160a01b039091169250636988ada59150608401600060405180830381600087803b158015611fd257600080fd5b505af1158015611fe6573d6000803e3d6000fd5b5050505060005b87518110156120e857600360009054906101000a90046001600160a01b03166001600160a01b03166376284a028560405180604001604052808c8681518110612038576120386149b6565b60200260200101516001600160a01b031681526020016120708d8781518110612063576120636149b6565b6020026020010151612323565b90526040516001600160e01b031960e085901b168152600481019290925280516001600160a01b03166024830152602001516044820152606401600060405180830381600087803b1580156120c457600080fd5b505af11580156120d8573d6000803e3d6000fd5b505060019092019150611fed9050565b50600354604080516060810182526001600160401b03808f1682528d81166020830152421681830152905163d66aaa2360e01b81526001600160a01b039092169163d66aaa239161213e918f9190600401614c0a565b600060405180830381600087803b15801561215857600080fd5b505af115801561216c573d6000803e3d6000fd5b505050507fa4104be7ab8c38aaaf265464d0f25baf313c1f3d1661ac19a152a159a3d01d398b868c8a6040516121a59493929190614c1e565b60405180910390a15050505050505050505050565b6007546000906001600160a01b03166361f456c4846121db856101206149a3565b6040516001600160e01b031960e085901b16815260048101929092526024820152604401602060405180830381865afa15801561221c573d6000803e3d6000fd5b505050506040513d601f19601f8201168201806040525081019061083d9190614b5e565b600083838360405160200161225793929190614c43565b6040516020818303038152906040528051906020012090509392505050565b6122bb828260405160240161228c929190614c6f565b60408051601f198184030181529190526020810180516001600160e01b0316632d839cb360e21b179052612aff565b5050565b60006122d4818360a00151600160801b612e6a565b6105f590826149a3565b6122bb82826040516024016122f4929190614c91565b60408051601f198184030181529190526020810180516001600160e01b031663319af33360e01b179052612aff565b600080600560009054906101000a90046001600160a01b03166001600160a01b0316634730824d6040518163ffffffff1660e01b8152600401602060405180830381865afa158015612379573d6000803e3d6000fd5b505050506040513d601f19601f8201168201806040525081019061239d9190614cbb565b90506123d460405180604001604052806013815260200172021b432b1b5b4b7339039ba30b5b2903337b91606d1b815250846122de565b604051638bd25f1d60e01b81526001600160a01b038481166004830152821690638bd25f1d90602401602060405180830381865afa15801561221c573d6000803e3d6000fd5b6000546001600160a01b0316331461124d5760405163118cdaa760e01b8152336004820152602401610538565b600080546001600160a01b038381166001600160a01b0319831681178455604051919092169283917f8be0079c531659141344cd1fd0a4f28419497f9722a3daafe3b4186f6b6457e09190a35050565b6003546040516316f5e9d360e21b81526001600160401b03891660048201526000916001600160a01b031690635bd7a74c90602401606060405180830381865afa1580156124e9573d6000803e3d6000fd5b505050506040513d601f19601f8201168201806040525081019061250d9190614598565b905061254f604051806040016040528060118152602001704f524947494e414c204e4f4e434520495360781b81525082602001516001600160401b0316612276565b600061255f898360200151611aa6565b905060006125778a6001600160401b031685516121ba565b90506125a76040518060400160405280600c81526020016b46697865642046656520697360a01b81525082612276565b604080516001808252818301909252600091816020015b60608152602001906001900390816125be57905050905084816000815181106125e9576125e96149b6565b60200260200101819052506000604051806101200160405280426001600160401b031681526020018c6001600160a01b031681526020018b6001600160a01b031681526020018a6001600160a01b03168152602001896001600160a01b03168152602001888152602001875160000361268d576040805160008082526020820190925290612687565b60608152602001906001900390816126725790505b5061268f565b835b81526000602082015260400184905290506126a9856129ef565b1561285f57602085018051906126be82614cd8565b6001600160401b03908116909152428116604080890191909152908e1687526003549051631442b80f60e01b81526001600160a01b039091169150631442b80f9061270f908f908990600401614a8e565b600060405180830381600087803b15801561272957600080fd5b505af115801561273d573d6000803e3d6000fd5b5050505061274f8c8660200151611aa6565b600354604080516020810182528881529051637bdb69c360e11b81529296506001600160a01b039091169163f7b6d3869161278f91889190600401614cfe565b600060405180830381600087803b1580156127a957600080fd5b505af11580156127bd573d6000803e3d6000fd5b5050865160208801516040808a015190517f2a241925b0de635e3cff1a0dd10a54a674358a07673257cf99c737a5058ca00f955061281994506001600160401b0393841681529183166020830152909116604082015260600190565b60405180910390a161285f6040518060400160405280600f81526020016e4e455720424c4f434b204e4f4e434560881b81525086602001516001600160401b0316612276565b6000600560009054906101000a90046001600160a01b03166001600160a01b031663420e5b7d8e8860200151876040518463ffffffff1660e01b81526004016128c9939291906001600160401b039384168152919092166020820152604081019190915260600190565b6020604051808303816000875af11580156128e8573d6000803e3d6000fd5b505050506040513d601f19601f8201168201806040525081019061290c9190614b5e565b60e08301819052600354604051632174f9c560e21b81529192506001600160a01b0316906385d3e714906129469088908690600401614afb565b600060405180830381600087803b15801561296057600080fd5b505af1158015612974573d6000803e3d6000fd5b505050507feb96ea237c7a105fa554141b0cf6cb7c71a27d6631836a26cdebeee1ff0a3b5a826000015183602001518460400151856060015186608001518760a001518d8960e001518a61010001516040516129d899989796959493929190614d17565b60405180910390a150505050505050505050505050565b6000607882604001516001600160401b031642612a0c9190614a42565b101592915050565b805182516000916001600160401b039182169116141580612a4f575081602001516001600160a01b031683602001516001600160a01b031614155b15612a5c575060006105f5565b81604051602001612a6d9190614d84565b6040516020818303038152906040528051906020012083604051602001612a949190614d84565b6040516020818303038152906040528051906020012014905092915050565b612afa838383604051602401612acb93929190614d97565b60408051601f198184030181529190526020810180516001600160e01b031663ca47c4eb60e01b179052612aff565b505050565b611aa381612fee565b60008060008060001b9050600080612b476040518060400160405280600e81526020016d5052452d46494e20424c4f434b5360901b8152508951612276565b895b898111612dbe576000612b5c8d83611aa6565b600354604051630e2cd96560e31b8152600481018390529192506001600160a01b031690637166cb289060240161010060405180830381865afa158015612ba7573d6000803e3d6000fd5b505050506040513d601f19601f82011682018060405250810190612bcb91906145bf565b51600354604051630e2cd96560e31b81526004810184905296909118956001600160a01b0390911690637166cb289060240161010060405180830381865afa158015612c1b573d6000803e3d6000fd5b505050506040513d601f19601f82011682018060405250810190612c3f91906145bf565b60600151612c4d90846149a3565b92508951600014158015612c795750898481518110612c6e57612c6e6149b6565b602002602001015182145b8015612c855750838a51115b15612d3357612cbb6040518060400160405280600e81526020016d494e56414c494420424c4f434b5360901b8152508b51612276565b6000612cc68261300f565b9050612cd281896149a3565b975084612cde81614dbc565b9550507fb8f2ef65a366ad8e9137b384b0e22472ef34df83f11c46da2a4109f4564acd218e8d42604051612d25939291909283526020830191909152604082015260600190565b60405180910390a150612dab565b600080612d3f836133fd565b9092509050612d4e828a6149a3565b9850612d5a81896149a3565b97507fc0af6e92e7a5dd900b20af8b7e29c9682e1f22d94edc027eb1813225801e90df8f8e42604051612da0939291909283526020830191909152604082015260600190565b60405180910390a150505b5080612db681614dbc565b915050612b49565b5060408051608081018252338152602081018581528183018a81526060830185815260035494516308df9b8560e01b8152600481018c905284516001600160a01b0390811660248301529351604482015291516064830152516084820152919216906308df9b859060a401600060405180830381600087803b158015612e4357600080fd5b505af1158015612e57573d6000803e3d6000fd5b5050505050505050965096945050505050565b6000808060001985870985870292508281108382030391505080600003612ea35760008411612e9857600080fd5b50829004905061083d565b808411612eaf57600080fd5b600084868809808403938111909203919050600085612ed081600019614a42565b612edb9060016149a3565b16958690049593849004936000819003046001019050612efb8184614a77565b909317926000612f0c876003614a77565b6002189050612f1b8188614a77565b612f26906002614a42565b612f309082614a77565b9050612f3c8188614a77565b612f47906002614a42565b612f519082614a77565b9050612f5d8188614a77565b612f68906002614a42565b612f729082614a77565b9050612f7e8188614a77565b612f89906002614a42565b612f939082614a77565b9050612f9f8188614a77565b612faa906002614a42565b612fb49082614a77565b9050612fc08188614a77565b612fcb906002614a42565b612fd59082614a77565b9050612fe18186614a77565b9998505050505050505050565b60006a636f6e736f6c652e6c6f679050600080835160208501845afa505050565b600354604051631d9ad75160e31b8152600481018390526000916001600160a01b03169063ecd6ba8890602401600060405180830381600087803b15801561305657600080fd5b505af115801561306a573d6000803e3d6000fd5b5050600354604051630e2cd96560e31b815260048101869052600093506001600160a01b039091169150637166cb289060240161010060405180830381865afa1580156130bb573d6000803e3d6000fd5b505050506040513d601f19601f820116820180604052508101906130df91906145bf565b600480546007546040805163aa6fff7360e01b815290519495506001600160a01b0392831694600094939092169263aa6fff73928282019260209290829003018187875af1158015613135573d6000803e3d6000fd5b505050506040513d601f19601f820116820180604052508101906131599190614b5e565b600354604051635ba1230f60e11b8152600481018890529192506000916001600160a01b039091169063b742461e90602401600060405180830381865afa1580156131a8573d6000803e3d6000fd5b505050506040513d6000823e601f3d908101601f191682016040526131d091908101906147d7565b905060005b81518110156133a05760008282815181106131f2576131f26149b6565b602002602001015190506101208761320a91906149a3565b965060005b8160c0015151811015613250578160c001518181518110613232576132326149b6565b6020026020010151518861324691906149a3565b975060010161320f565b5061325d610120886149a3565b96506000613274858360e00151600160801b612e6a565b90506132a36040518060400160405280600b81526020016a283934b1b29034b997171760a91b81525086612276565b6132df60405180604001604052806015815260200174023b0b990383937bb34b232b21034b71032ba341d1605d1b8152508360e0015183612ab3565b6132e93a82614dd5565b905061331f6040518060400160405280601281526020017111d85cc81b1a5b5a5d081c1c9bdd9a59195960721b81525082612276565b60a0870151516040516306ceaaf760e51b81526001600160a01b0388169163d9d55ee09161335291908690600401614df7565b6020604051808303816000875af1158015613371573d6000803e3d6000fd5b505050506040513d601f19601f820116820180604052508101906133959190614b5e565b5050506001016131d5565b50826001600160a01b031663db99bddd6040518163ffffffff1660e01b8152600401600060405180830381600087803b1580156133dc57600080fd5b505af11580156133f0573d6000803e3d6000fd5b5050505050505050919050565b600354604051630e2cd96560e31b815260048101839052600091829182916001600160a01b031690637166cb289060240161010060405180830381865afa15801561344c573d6000803e3d6000fd5b505050506040513d601f19601f8201168201806040525081019061347091906145bf565b600480546007546040805163aa6fff7360e01b815290519495506001600160a01b0392831694600094939092169263aa6fff73928282019260209290829003018187875af11580156134c6573d6000803e3d6000fd5b505050506040513d601f19601f820116820180604052508101906134ea9190614b5e565b600354604051635ba1230f60e11b8152600481018990529192506000916001600160a01b039091169063b742461e90602401600060405180830381865afa158015613539573d6000803e3d6000fd5b505050506040513d6000823e601f3d908101601f1916820160405261356191908101906147d7565b905060005b81518110156137b3576000828281518110613583576135836149b6565b602002602001015190506101208861359b91906149a3565b975060005b8160c00151518110156135e1578160c0015181815181106135c3576135c36149b6565b602002602001015151896135d791906149a3565b98506001016135a0565b5060006135f7858360e00151600160801b612e6a565b90506136266040518060400160405280600b81526020016a283934b1b29034b997171760a91b81525086612276565b61366260405180604001604052806015815260200174023b0b990383937bb34b232b21034b71032ba341d1605d1b8152508360e0015183612ab3565b61366c3a82614dd5565b90506136a26040518060400160405280601281526020017111d85cc81b1a5b5a5d081c1c9bdd9a59195960721b81525082612276565b6000620f4a0d6001600160a01b031683602001516001600160a01b0316036136dd576136d6838960a0015160000151613810565b9050613758565b60a08801516040516329a5d35960e01b81526001600160a01b038916916329a5d3599161371291889188908890600401614e19565b6020604051808303816000875af1158015613731573d6000803e3d6000fd5b505050506040513d601f19601f820116820180604052508101906137559190614b5e565b90505b613762818a6149a3565b98506137a86040518060400160405280601a81526020017f52454d4f544520545820455845435554454420767320757365640000000000008152508460e0015183612ab3565b505050600101613566565b50826001600160a01b031663db99bddd6040518163ffffffff1660e01b8152600401600060405180830381600087803b1580156137ef57600080fd5b505af1158015613803573d6000803e3d6000fd5b5050505050505050915091565b6000805a905060008060008060008860c00151600081518110613835576138356149b6565b60200260200101518060200190518101906138509190614e50565b9450945094509450945060006138668986611aa6565b600354604051630e2cd96560e31b8152600481018390529192506000916001600160a01b0390911690637166cb289060240161010060405180830381865afa1580156138b6573d6000803e3d6000fd5b505050506040513d601f19601f820116820180604052508101906138da91906145bf565b9050868160000151036139d6576005548151604051630271be5760e41b81526000926001600160a01b03169163271be5709161391f91908a908a908a90600401614ebd565b602060405180830381865afa15801561393c573d6000803e3d6000fd5b505050506040513d601f19601f820116820180604052508101906139609190614cbb565b60055460608e0151604051638d3b2c8960e01b81526001600160a01b038085166004830152602482018d905291821660448201529293501690638d3b2c8990606401600060405180830381600087803b1580156139bc57600080fd5b505af11580156139d0573d6000803e3d6000fd5b50505050505b60005a90506139e5818a614a42565b9950613a136040518060400160405280600a815260200169033b0b9903ab9b2b21f960b51b81525082612276565b50505050505050505092915050565b6040805160c0810182526000808252602080830182905282840182905260608084018390526080840183905284519081018552828152908101829052928301529060a082015290565b6001600160a01b0381168114611aa357600080fd5b8035613a8b81613a6b565b919050565b600060208284031215613aa257600080fd5b813561083d81613a6b565b6001600160401b0381168114611aa357600080fd5b8035613a8b81613aad565b600060208284031215613adf57600080fd5b813561083d81613aad565b80516001600160401b03908116835260208083015182169084015260409182015116910152565b606081016105f58284613aea565b60008060408385031215613b3257600080fd5b8235613b3d81613aad565b91506020830135613b4d81613aad565b809150509250929050565b8051825260018060a01b03602082015116602083015260ff6040820151166040830152606081015160608301526080810151608083015260a0810151612afa60a0840182613aea565b60005b83811015613bbc578181015183820152602001613ba4565b50506000910152565b60008151808452613bdd816020860160208601613ba1565b601f01601f19169290920160200192915050565b60008282518085526020808601955060208260051b8401016020860160005b84811015613c3e57601f19868403018952613c2c838351613bc5565b98840198925090830190600101613c10565b5090979650505050505050565b60006101206001600160401b0383511684526020830151613c7760208601826001600160a01b03169052565b506040830151613c9260408601826001600160a01b03169052565b506060830151613cad60608601826001600160a01b03169052565b506080830151613cc860808601826001600160a01b03169052565b5060a083015160a085015260c08301518160c0860152613cea82860182613bf1565b60e08581015190870152610100948501519490950193909352509192915050565b60008282518085526020808601955060208260051b8401016020860160005b84811015613c3e57601f19868403018952613d46838351613c4b565b98840198925090830190600101613d2a565b6000610120613d678386613b58565b80610100840152613d7a81840185613d0b565b95945050505050565b634e487b7160e01b600052604160045260246000fd5b60405161012081016001600160401b0381118282101715613dbc57613dbc613d83565b60405290565b604051601f8201601f191681016001600160401b0381118282101715613dea57613dea613d83565b604052919050565b60006001600160401b03821115613e0b57613e0b613d83565b5060051b60200190565b600082601f830112613e2657600080fd5b81356020613e3b613e3683613df2565b613dc2565b8083825260208201915060208460051b870101935086841115613e5d57600080fd5b602086015b84811015613e795780358352918301918301613e62565b509695505050505050565b600082601f830112613e9557600080fd5b81356020613ea5613e3683613df2565b8083825260208201915060208460051b870101935086841115613ec757600080fd5b602086015b84811015613e79578035613edf81613a6b565b8352918301918301613ecc565b60006001600160401b03821115613f0557613f05613d83565b50601f01601f191660200190565b600082601f830112613f2457600080fd5b8135613f32613e3682613eec565b818152846020838601011115613f4757600080fd5b816020850160208301376000918101602001919091529392505050565b600080600080600080600080610100898b031215613f8157600080fd5b883597506020890135965060408901356001600160401b0380821115613fa657600080fd5b613fb28c838d01613e15565b975060608b0135965060808b0135915080821115613fcf57600080fd5b613fdb8c838d01613e84565b955060a08b01359450613ff060c08c01613ac2565b935060e08b013591508082111561400657600080fd5b506140138b828c01613f13565b9150509295985092959890939650565b6000806040838503121561403657600080fd5b50508035926020909101359150565b600082601f83011261405657600080fd5b81356020614066613e3683613df2565b82815260059290921b8401810191818101908684111561408557600080fd5b8286015b84811015613e795780356001600160401b038111156140a85760008081fd5b6140b68986838b0101613f13565b845250918301918301614089565b600082601f8301126140d557600080fd5b813560206140e5613e3683613df2565b82815260059290921b8401810191818101908684111561410457600080fd5b8286015b84811015613e795780356001600160401b03808211156141285760008081fd5b90880190610120828b03601f19018113156141435760008081fd5b61414b613d99565b614156888501613ac2565b81526040614165818601613a80565b898301526060614176818701613a80565b8284015260809150614189828701613a80565b9083015260a061419a868201613a80565b8284015260c0915081860135818401525060e080860135858111156141bf5760008081fd5b6141cd8f8c838a0101614045565b92840192909252610100868101359184019190915292909401359181019190915285525050918301918301614108565b60008060006060848603121561421257600080fd5b833561421d81613aad565b9250602084013561422d81613aad565b915060408401356001600160401b0381111561424857600080fd5b614254868287016140c4565b9150509250925092565b60008060008060008060c0878903121561427757600080fd5b863561428281613aad565b9550602087013561429281613aad565b945060408701356001600160401b03808211156142ae57600080fd5b6142ba8a838b016140c4565b955060608901359450608089013591506142d382613aad565b90925060a088013590808211156142e957600080fd5b506142f689828a01613f13565b9150509295509295509295565b60006020828403121561431557600080fd5b5035919050565b600080600080600080600060e0888a03121561433757600080fd5b873561434281613aad565b9650602088013561435281613a6b565b9550604088013561436281613a6b565b9450606088013561437281613a6b565b9350608088013561438281613a6b565b925060a0880135915060c08801356001600160401b038111156143a457600080fd5b6143b08a828b01613f13565b91505092959891949750929550565b600080604083850312156143d257600080fd5b82356143dd81613a6b565b91506020830135613b4d81613a6b565b600080600080600080600080610100898b03121561440a57600080fd5b883561441581613aad565b9750602089013561442581613aad565b9650604089013561443581613aad565b955060608901356001600160401b038082111561445157600080fd5b61445d8c838d016140c4565b965060808b0135955060a08b0135915061447682613aad565b90935060c08a0135908082111561448c57600080fd5b506144998b828c01613f13565b92505060e08901356144aa81613a6b565b809150509295985092959890939650565b6144c6818451613aea565b6080606082015260006108516080830184613d0b565b60208152600061083d6020830184613bc5565b6020808252600d908201526c2ba09d103737ba1030b236b4b760991b604082015260600190565b8051613a8b81613aad565b60006060828403121561453357600080fd5b604051606081018181106001600160401b038211171561455557614555613d83565b8060405250809150825161456881613aad565b8152602083015161457881613aad565b6020820152604083015161458b81613aad565b6040919091015292915050565b6000606082840312156145aa57600080fd5b61083d8383614521565b8051613a8b81613a6b565b600061010082840312156145d257600080fd5b60405160c081018181106001600160401b03821117156145f4576145f4613d83565b60405282518152602083015161460981613a6b565b6020820152604083015160ff8116811461462257600080fd5b80604083015250606083015160608201526080830151608082015261464a8460a08501614521565b60a08201529392505050565b600082601f83011261466757600080fd5b8151614675613e3682613eec565b81815284602083860101111561468a57600080fd5b610851826020830160208701613ba1565b600082601f8301126146ac57600080fd5b815160206146bc613e3683613df2565b82815260059290921b840181019181810190868411156146db57600080fd5b8286015b84811015613e795780516001600160401b038111156146fe5760008081fd5b61470c8986838b0101614656565b8452509183019183016146df565b6000610120828403121561472d57600080fd5b614735613d99565b905061474082614516565b815261474e602083016145b4565b602082015261475f604083016145b4565b6040820152614770606083016145b4565b6060820152614781608083016145b4565b608082015260a082015160a082015260c08201516001600160401b038111156147a957600080fd5b6147b58482850161469b565b60c08301525060e082015160e082015261010080830151818301525092915050565b600060208083850312156147ea57600080fd5b82516001600160401b038082111561480157600080fd5b818501915085601f83011261481557600080fd5b8151614823613e3682613df2565b81815260059190911b8301840190848101908883111561484257600080fd5b8585015b8381101561487a5780518581111561485e5760008081fd5b61486c8b89838a010161471a565b845250918601918601614846565b5098975050505050505050565b60008151808452602080850194506020840160005b838110156148c15781516001600160a01b03168752958201959082019060010161489c565b509495945050505050565b87815286602082015285604082015284606082015260e0608082015260006148f760e0830186614887565b90508360a08301526001600160401b03831660c083015298975050505050505050565b634e487b7160e01b600052602160045260246000fd5b60006004871061495057634e487b7160e01b600052602160045260246000fd5b8682528560208301528460408301526001600160401b038416606083015260a0608083015261498260a0830184613bc5565b979650505050505050565b634e487b7160e01b600052601160045260246000fd5b808201808211156105f5576105f561498d565b634e487b7160e01b600052603260045260246000fd5b8681528560208201526001600160401b038516604082015260c0606082015260006149fa60c0830186613bc5565b60808301949094525060a00152949350505050565b60008060408385031215614a2257600080fd5b825160038110614a3157600080fd5b6020840151909250613b4d81613a6b565b818103818111156105f5576105f561498d565b600060208284031215614a6757600080fd5b8151801515811461083d57600080fd5b80820281158282048414176105f5576105f561498d565b6001600160401b03831681526080810161083d6020830184613aea565b8581526001600160a01b0385166020820152604081018490526060810183905260e08101614adc6080830184613aea565b9695505050505050565b828152610120810161083d6020830184613b58565b8281526040602082015260006108516040830184613c4b565b600060608284031215614b2657600080fd5b604051602081018181106001600160401b0382111715614b4857614b48613d83565b604052614b558484614521565b81529392505050565b600060208284031215614b7057600080fd5b5051919050565b85815260006001600160401b03808716602084015285604084015280851660608401525060a0608083015261498260a0830184613bc5565b600060208284031215614bc157600080fd5b81516001600160401b03811115614bd757600080fd5b6108518482850161471a565b6001600160401b03818116838216019080821115614c0357614c0361498d565b5092915050565b8281526080810161083d6020830184613aea565b848152836020820152826040820152608060608201526000614adc6080830184614887565b60006001600160401b03808616835280851660208401525060606040830152613d7a6060830184613d0b565b604081526000614c826040830185613bc5565b90508260208301529392505050565b604081526000614ca46040830185613bc5565b905060018060a01b03831660208301529392505050565b600060208284031215614ccd57600080fd5b815161083d81613a6b565b60006001600160401b03808316818103614cf457614cf461498d565b6001019392505050565b600060808201905083825261083d602083018451613aea565b6001600160401b038a1681526001600160a01b038981166020830152888116604083015287811660608301528616608082015260a0810185905261012060c08201819052600090614d6a83820187613bc5565b60e084019590955250506101000152979650505050505050565b60208152600061083d6020830184613c4b565b606081526000614daa6060830186613bc5565b60208301949094525060400152919050565b600060018201614dce57614dce61498d565b5060010190565b600082614df257634e487b7160e01b600052601260045260246000fd5b500490565b6001600160401b03831681526040602082015260006108516040830184613c4b565b848152614e296020820185613aea565b60c060808201526000614e3f60c0830185613c4b565b90508260a083015295945050505050565b600080600080600060a08688031215614e6857600080fd5b8551945060208601519350604086015192506060860151614e8881613aad565b60808701519092506001600160401b03811115614ea457600080fd5b614eb088828901614656565b9150509295509295909350565b8481528360208201526001600160401b0383166040820152608060608201526000614adc6080830184613bc556fea2646970667358221220b8c77d549f90bf606fccd42c27bded90d8e64ca9003d7c26f5161d0841991b8c64736f6c63430008180033",
  "linkReferences": {},
  "deployedLinkReferences": {}
}